{
  "_format": "hh-sol-artifact-1",
  "contractName": "CertificateRegistry",
  "sourceName": "contracts/CertificateRegistry.sol",
  "abi": [
    {
      "inputs": [
        {
          "internalType": "address",
          "name": "_userRegistryAddress",
          "type": "address"
        }
      ],
      "stateMutability": "nonpayable",
      "type": "constructor"
    },
    {
      "anonymous": false,
      "inputs": [
        {
          "indexed": true,
          "internalType": "bytes32",
          "name": "cert_hash",
          "type": "bytes32"
        },
        {
          "indexed": true,
          "internalType": "string",
          "name": "student_id",
          "type": "string"
        },
        {
          "indexed": false,
          "internalType": "uint256",
          "name": "version",
          "type": "uint256"
        },
        {
          "indexed": true,
          "internalType": "address",
          "name": "issuer",
          "type": "address"
        },
        {
          "indexed": false,
          "internalType": "uint256",
          "name": "block_number",
          "type": "uint256"
        }
      ],
      "name": "CertificateIssued",
      "type": "event"
    },
    {
      "anonymous": false,
      "inputs": [
        {
          "indexed": true,
          "internalType": "bytes32",
          "name": "cert_hash",
          "type": "bytes32"
        },
        {
          "indexed": true,
          "internalType": "address",
          "name": "reactivated_by",
          "type": "address"
        },
        {
          "indexed": false,
          "internalType": "uint256",
          "name": "block_number",
          "type": "uint256"
        }
      ],
      "name": "CertificateReactivated",
      "type": "event"
    },
    {
      "anonymous": false,
      "inputs": [
        {
          "indexed": true,
          "internalType": "bytes32",
          "name": "cert_hash",
          "type": "bytes32"
        },
        {
          "indexed": true,
          "internalType": "address",
          "name": "revoked_by",
          "type": "address"
        },
        {
          "indexed": false,
          "internalType": "string",
          "name": "reason",
          "type": "string"
        },
        {
          "indexed": false,
          "internalType": "uint256",
          "name": "timestamp",
          "type": "uint256"
        },
        {
          "indexed": false,
          "internalType": "uint256",
          "name": "block_number",
          "type": "uint256"
        }
      ],
      "name": "CertificateRevoked",
      "type": "event"
    },
    {
      "inputs": [],
      "name": "admin",
      "outputs": [
        {
          "internalType": "address",
          "name": "",
          "type": "address"
        }
      ],
      "stateMutability": "view",
      "type": "function"
    },
    {
      "inputs": [
        {
          "internalType": "string",
          "name": "student_id",
          "type": "string"
        }
      ],
      "name": "getActiveCertificate",
      "outputs": [
        {
          "components": [
            {
              "internalType": "bytes32",
              "name": "cert_hash",
              "type": "bytes32"
            },
            {
              "internalType": "string",
              "name": "student_id",
              "type": "string"
            },
            {
              "internalType": "uint256",
              "name": "version",
              "type": "uint256"
            },
            {
              "internalType": "string",
              "name": "student_name",
              "type": "string"
            },
            {
              "internalType": "string",
              "name": "degree",
              "type": "string"
            },
            {
              "internalType": "string",
              "name": "program",
              "type": "string"
            },
            {
              "internalType": "uint16",
              "name": "cgpa",
              "type": "uint16"
            },
            {
              "internalType": "string",
              "name": "issuing_authority",
              "type": "string"
            },
            {
              "internalType": "address",
              "name": "issuer",
              "type": "address"
            },
            {
              "internalType": "bool",
              "name": "is_revoked",
              "type": "bool"
            },
            {
              "internalType": "bytes",
              "name": "signature",
              "type": "bytes"
            },
            {
              "internalType": "uint256",
              "name": "issuance_date",
              "type": "uint256"
            }
          ],
          "internalType": "struct CertificateRegistry.Certificate",
          "name": "",
          "type": "tuple"
        }
      ],
      "stateMutability": "view",
      "type": "function"
    },
    {
      "inputs": [
        {
          "internalType": "string",
          "name": "student_id",
          "type": "string"
        }
      ],
      "name": "getAllVersions",
      "outputs": [
        {
          "internalType": "bytes32[]",
          "name": "",
          "type": "bytes32[]"
        }
      ],
      "stateMutability": "view",
      "type": "function"
    },
    {
      "inputs": [
        {
          "internalType": "bytes32",
          "name": "cert_hash",
          "type": "bytes32"
        },
        {
          "internalType": "string",
          "name": "student_id",
          "type": "string"
        },
        {
          "internalType": "string",
          "name": "student_name",
          "type": "string"
        },
        {
          "internalType": "string",
          "name": "degree",
          "type": "string"
        },
        {
          "internalType": "string",
          "name": "program",
          "type": "string"
        },
        {
          "internalType": "uint16",
          "name": "cgpa",
          "type": "uint16"
        },
        {
          "internalType": "string",
          "name": "issuing_authority",
          "type": "string"
        },
        {
          "internalType": "bytes",
          "name": "signature",
          "type": "bytes"
        },
        {
          "internalType": "address",
          "name": "issuer_address",
          "type": "address"
        }
      ],
      "name": "issueCertificate",
      "outputs": [],
      "stateMutability": "nonpayable",
      "type": "function"
    },
    {
      "inputs": [
        {
          "internalType": "bytes32",
          "name": "cert_hash",
          "type": "bytes32"
        },
        {
          "internalType": "address",
          "name": "actor_address",
          "type": "address"
        }
      ],
      "name": "reactivateCertificate",
      "outputs": [],
      "stateMutability": "nonpayable",
      "type": "function"
    },
    {
      "inputs": [
        {
          "internalType": "bytes32",
          "name": "cert_hash",
          "type": "bytes32"
        },
        {
          "internalType": "address",
          "name": "actor_address",
          "type": "address"
        },
        {
          "internalType": "string",
          "name": "reason",
          "type": "string"
        }
      ],
      "name": "revokeCertificate",
      "outputs": [],
      "stateMutability": "nonpayable",
      "type": "function"
    },
    {
      "inputs": [
        {
          "internalType": "string",
          "name": "",
          "type": "string"
        }
      ],
      "name": "student_to_active_cert_hash",
      "outputs": [
        {
          "internalType": "bytes32",
          "name": "",
          "type": "bytes32"
        }
      ],
      "stateMutability": "view",
      "type": "function"
    },
    {
      "inputs": [
        {
          "internalType": "string",
          "name": "",
          "type": "string"
        }
      ],
      "name": "student_to_latest_version",
      "outputs": [
        {
          "internalType": "uint256",
          "name": "",
          "type": "uint256"
        }
      ],
      "stateMutability": "view",
      "type": "function"
    },
    {
      "inputs": [
        {
          "internalType": "string",
          "name": "",
          "type": "string"
        },
        {
          "internalType": "uint256",
          "name": "",
          "type": "uint256"
        }
      ],
      "name": "student_version_to_hash",
      "outputs": [
        {
          "internalType": "bytes32",
          "name": "",
          "type": "bytes32"
        }
      ],
      "stateMutability": "view",
      "type": "function"
    },
    {
      "inputs": [],
      "name": "userRegistry",
      "outputs": [
        {
          "internalType": "contract IUserRegistry",
          "name": "",
          "type": "address"
        }
      ],
      "stateMutability": "view",
      "type": "function"
    },
    {
      "inputs": [
        {
          "internalType": "bytes32",
          "name": "cert_hash",
          "type": "bytes32"
        }
      ],
      "name": "verifyCertificate",
      "outputs": [
        {
          "internalType": "string",
          "name": "student_id",
          "type": "string"
        },
        {
          "internalType": "uint256",
          "name": "version",
          "type": "uint256"
        },
        {
          "internalType": "string",
          "name": "student_name",
          "type": "string"
        },
        {
          "internalType": "string",
          "name": "degree",
          "type": "string"
        },
        {
          "internalType": "string",
          "name": "program",
          "type": "string"
        },
        {
          "internalType": "uint16",
          "name": "cgpa",
          "type": "uint16"
        },
        {
          "internalType": "string",
          "name": "issuing_authority",
          "type": "string"
        },
        {
          "internalType": "address",
          "name": "issuer",
          "type": "address"
        },
        {
          "internalType": "bool",
          "name": "is_revoked",
          "type": "bool"
        },
        {
          "internalType": "bytes",
          "name": "signature",
          "type": "bytes"
        },
        {
          "internalType": "uint256",
          "name": "issuance_date",
          "type": "uint256"
        }
      ],
      "stateMutability": "view",
      "type": "function"
    }
  ],
  "bytecode": "0x60806040523480156200001157600080fd5b506040516200369e3803806200369e83398181016040528101906200003791906200012a565b33600560006101000a81548173ffffffffffffffffffffffffffffffffffffffff021916908373ffffffffffffffffffffffffffffffffffffffff16021790555080600660006101000a81548173ffffffffffffffffffffffffffffffffffffffff021916908373ffffffffffffffffffffffffffffffffffffffff160217905550506200015c565b600080fd5b600073ffffffffffffffffffffffffffffffffffffffff82169050919050565b6000620000f282620000c5565b9050919050565b6200010481620000e5565b81146200011057600080fd5b50565b6000815190506200012481620000f9565b92915050565b600060208284031215620001435762000142620000c0565b5b6000620001538482850162000113565b91505092915050565b613532806200016c6000396000f3fe608060405234801561001057600080fd5b50600436106100a95760003560e01c8063850c176811610071578063850c176814610164578063bae5de011461019e578063d4dca96d146101ce578063dd488cc3146101fe578063ec2457bd1461022e578063f851a4401461024a576100a9565b8063020a69dd146100ae5780634956be29146100de57806358056c5b146100fa5780635c7460d61461012a57806377d8b36014610148575b600080fd5b6100c860048036038101906100c39190611c80565b610268565b6040516100d59190611ce2565b60405180910390f35b6100f860048036038101906100f39190611e62565b610296565b005b610114600480360381019061010f9190611c80565b610855565b6040516101219190611fed565b60405180910390f35b610132610883565b60405161013f9190612067565b60405180910390f35b610162600480360381019061015d9190612082565b6108a9565b005b61017e600480360381019061017991906120c2565b610c14565b6040516101959b9a999897969594939291906121fc565b60405180910390f35b6101b860048036038101906101b391906122fd565b611126565b6040516101c59190611ce2565b60405180910390f35b6101e860048036038101906101e39190611c80565b611161565b6040516101f59190612417565b60405180910390f35b61021860048036038101906102139190611c80565b61129d565b6040516102259190612630565b60405180910390f35b61024860048036038101906102439190612652565b61174e565b005b610252611a80565b60405161025f91906126c1565b60405180910390f35b6004818051602081018201805184825260208301602085012081835280955050505050506000915090505481565b600660009054906101000a900473ffffffffffffffffffffffffffffffffffffffff1673ffffffffffffffffffffffffffffffffffffffff1663fe9fbb80826040518263ffffffff1660e01b81526004016102f191906126c1565b602060405180830381865afa15801561030e573d6000803e3d6000fd5b505050506040513d601f19601f820116820180604052508101906103329190612708565b610371576040517f08c379a0000000000000000000000000000000000000000000000000000000008152600401610368906127a7565b60405180910390fd5b600560009054906101000a900473ffffffffffffffffffffffffffffffffffffffff1673ffffffffffffffffffffffffffffffffffffffff163373ffffffffffffffffffffffffffffffffffffffff1614806103f857508073ffffffffffffffffffffffffffffffffffffffff163373ffffffffffffffffffffffffffffffffffffffff16145b610437576040517f08c379a000000000000000000000000000000000000000000000000000000000815260040161042e90612839565b60405180910390fd5b600160008a815260200190815260200160002060009054906101000a900460ff1615610498576040517f08c379a000000000000000000000000000000000000000000000000000000000815260040161048f906128a5565b60405180910390fd5b6101908461ffff1611156104e1576040517f08c379a00000000000000000000000000000000000000000000000000000000081526004016104d890612911565b60405180910390fd5b60006002896040516104f3919061296d565b9081526020016040518091039020549050600081111561057757600060048a60405161051f919061296d565b90815260200160405180910390205490506000801b8114610575576040517f08c379a000000000000000000000000000000000000000000000000000000000815260040161056c90612a1c565b60405180910390fd5b505b60006001826105869190612a6b565b90506040518061018001604052808c81526020018b81526020018281526020018a81526020018981526020018881526020018761ffff1681526020018681526020018473ffffffffffffffffffffffffffffffffffffffff168152602001600015158152602001858152602001428152506000808d81526020019081526020016000206000820151816000015560208201518160010190816106289190612ca1565b506040820151816002015560608201518160030190816106489190612ca1565b50608082015181600401908161065e9190612ca1565b5060a08201518160050190816106749190612ca1565b5060c08201518160060160006101000a81548161ffff021916908361ffff16021790555060e08201518160070190816106ad9190612ca1565b506101008201518160080160006101000a81548173ffffffffffffffffffffffffffffffffffffffff021916908373ffffffffffffffffffffffffffffffffffffffff1602179055506101208201518160080160146101000a81548160ff02191690831515021790555061014082015181600901908161072d9190612dce565b5061016082015181600a015590505060018060008d815260200190815260200160002060006101000a81548160ff0219169083151502179055508060028b604051610778919061296d565b9081526020016040518091039020819055508a60038b60405161079b919061296d565b90815260200160405180910390206000838152602001908152602001600020819055508a60048b6040516107cf919061296d565b9081526020016040518091039020819055508273ffffffffffffffffffffffffffffffffffffffff168a604051610806919061296d565b60405180910390208c7f1a674fcfd84f83bf208cf13da6ae7b6b9562596f54c89e2217c1a770f8107b018443604051610840929190612ea0565b60405180910390a45050505050505050505050565b6002818051602081018201805184825260208301602085012081835280955050505050506000915090505481565b600660009054906101000a900473ffffffffffffffffffffffffffffffffffffffff1681565b600660009054906101000a900473ffffffffffffffffffffffffffffffffffffffff1673ffffffffffffffffffffffffffffffffffffffff1663fe9fbb80826040518263ffffffff1660e01b815260040161090491906126c1565b602060405180830381865afa158015610921573d6000803e3d6000fd5b505050506040513d601f19601f820116820180604052508101906109459190612708565b610984576040517f08c379a000000000000000000000000000000000000000000000000000000000815260040161097b90612f15565b60405180910390fd5b600560009054906101000a900473ffffffffffffffffffffffffffffffffffffffff1673ffffffffffffffffffffffffffffffffffffffff163373ffffffffffffffffffffffffffffffffffffffff161480610a0b57508073ffffffffffffffffffffffffffffffffffffffff163373ffffffffffffffffffffffffffffffffffffffff16145b610a4a576040517f08c379a0000000000000000000000000000000000000000000000000000000008152600401610a4190612fa7565b60405180910390fd5b6001600083815260200190815260200160002060009054906101000a900460ff16610aaa576040517f08c379a0000000000000000000000000000000000000000000000000000000008152600401610aa190613013565b60405180910390fd5b600080600084815260200190815260200160002090508060080160149054906101000a900460ff16610b11576040517f08c379a0000000000000000000000000000000000000000000000000000000008152600401610b089061307f565b60405180910390fd5b6000600482600101604051610b269190613122565b90815260200160405180910390205490506000801b8114610b7c576040517f08c379a0000000000000000000000000000000000000000000000000000000008152600401610b73906131d1565b60405180910390fd5b60008260080160146101000a81548160ff02191690831515021790555083600483600101604051610bad9190613122565b9081526020016040518091039020819055508273ffffffffffffffffffffffffffffffffffffffff16847f8715fb30c14da3439544babc7c09ae9bd692d480791dfb8424a3177e9fc1487843604051610c069190611fed565b60405180910390a350505050565b6060600060608060606000606060008060606000600160008d815260200190815260200160002060009054906101000a900460ff16610c88576040517f08c379a0000000000000000000000000000000000000000000000000000000008152600401610c7f90613013565b60405180910390fd5b60008060008e81526020019081526020016000206040518061018001604052908160008201548152602001600182018054610cc290612ace565b80601f0160208091040260200160405190810160405280929190818152602001828054610cee90612ace565b8015610d3b5780601f10610d1057610100808354040283529160200191610d3b565b820191906000526020600020905b815481529060010190602001808311610d1e57829003601f168201915b5050505050815260200160028201548152602001600382018054610d5e90612ace565b80601f0160208091040260200160405190810160405280929190818152602001828054610d8a90612ace565b8015610dd75780601f10610dac57610100808354040283529160200191610dd7565b820191906000526020600020905b815481529060010190602001808311610dba57829003601f168201915b50505050508152602001600482018054610df090612ace565b80601f0160208091040260200160405190810160405280929190818152602001828054610e1c90612ace565b8015610e695780601f10610e3e57610100808354040283529160200191610e69565b820191906000526020600020905b815481529060010190602001808311610e4c57829003601f168201915b50505050508152602001600582018054610e8290612ace565b80601f0160208091040260200160405190810160405280929190818152602001828054610eae90612ace565b8015610efb5780601f10610ed057610100808354040283529160200191610efb565b820191906000526020600020905b815481529060010190602001808311610ede57829003601f168201915b505050505081526020016006820160009054906101000a900461ffff1661ffff1661ffff168152602001600782018054610f3490612ace565b80601f0160208091040260200160405190810160405280929190818152602001828054610f6090612ace565b8015610fad5780601f10610f8257610100808354040283529160200191610fad565b820191906000526020600020905b815481529060010190602001808311610f9057829003601f168201915b505050505081526020016008820160009054906101000a900473ffffffffffffffffffffffffffffffffffffffff1673ffffffffffffffffffffffffffffffffffffffff1673ffffffffffffffffffffffffffffffffffffffff1681526020016008820160149054906101000a900460ff1615151515815260200160098201805461103790612ace565b80601f016020809104026020016040519081016040528092919081815260200182805461106390612ace565b80156110b05780601f10611085576101008083540402835291602001916110b0565b820191906000526020600020905b81548152906001019060200180831161109357829003601f168201915b50505050508152602001600a82015481525050905080602001518160400151826060015183608001518460a001518560c001518660e001518761010001518861012001518961014001518a61016001519b509b509b509b509b509b509b509b509b509b509b505091939597999b90929496989a50565b600382805160208101820180518482526020830160208501208183528095505050505050602052806000526040600020600091509150505481565b60606000600283604051611175919061296d565b9081526020016040518091039020549050600081116111c9576040517f08c379a00000000000000000000000000000000000000000000000000000000081526004016111c090613263565b60405180910390fd5b60008167ffffffffffffffff8111156111e5576111e4611b55565b5b6040519080825280602002602001820160405280156112135781602001602082028036833780820191505090505b5090506000600190505b82811161129257600385604051611234919061296d565b9081526020016040518091039020600082815260200190815260200160002054826001836112629190613283565b81518110611273576112726132b7565b5b602002602001018181525050808061128a906132e6565b91505061121d565b508092505050919050565b6112a5611aa6565b60006004836040516112b7919061296d565b90815260200160405180910390205490506000801b810361130d576040517f08c379a0000000000000000000000000000000000000000000000000000000008152600401611304906133a0565b60405180910390fd5b600080828152602001908152602001600020604051806101800160405290816000820154815260200160018201805461134590612ace565b80601f016020809104026020016040519081016040528092919081815260200182805461137190612ace565b80156113be5780601f10611393576101008083540402835291602001916113be565b820191906000526020600020905b8154815290600101906020018083116113a157829003601f168201915b50505050508152602001600282015481526020016003820180546113e190612ace565b80601f016020809104026020016040519081016040528092919081815260200182805461140d90612ace565b801561145a5780601f1061142f5761010080835404028352916020019161145a565b820191906000526020600020905b81548152906001019060200180831161143d57829003601f168201915b5050505050815260200160048201805461147390612ace565b80601f016020809104026020016040519081016040528092919081815260200182805461149f90612ace565b80156114ec5780601f106114c1576101008083540402835291602001916114ec565b820191906000526020600020905b8154815290600101906020018083116114cf57829003601f168201915b5050505050815260200160058201805461150590612ace565b80601f016020809104026020016040519081016040528092919081815260200182805461153190612ace565b801561157e5780601f106115535761010080835404028352916020019161157e565b820191906000526020600020905b81548152906001019060200180831161156157829003601f168201915b505050505081526020016006820160009054906101000a900461ffff1661ffff1661ffff1681526020016007820180546115b790612ace565b80601f01602080910402602001604051908101604052809291908181526020018280546115e390612ace565b80156116305780601f1061160557610100808354040283529160200191611630565b820191906000526020600020905b81548152906001019060200180831161161357829003601f168201915b505050505081526020016008820160009054906101000a900473ffffffffffffffffffffffffffffffffffffffff1673ffffffffffffffffffffffffffffffffffffffff1673ffffffffffffffffffffffffffffffffffffffff1681526020016008820160149054906101000a900460ff161515151581526020016009820180546116ba90612ace565b80601f01602080910402602001604051908101604052809291908181526020018280546116e690612ace565b80156117335780601f1061170857610100808354040283529160200191611733565b820191906000526020600020905b81548152906001019060200180831161171657829003601f168201915b50505050508152602001600a82015481525050915050919050565b600660009054906101000a900473ffffffffffffffffffffffffffffffffffffffff1673ffffffffffffffffffffffffffffffffffffffff1663fe9fbb80836040518263ffffffff1660e01b81526004016117a991906126c1565b602060405180830381865afa1580156117c6573d6000803e3d6000fd5b505050506040513d601f19601f820116820180604052508101906117ea9190612708565b611829576040517f08c379a000000000000000000000000000000000000000000000000000000000815260040161182090612f15565b60405180910390fd5b600560009054906101000a900473ffffffffffffffffffffffffffffffffffffffff1673ffffffffffffffffffffffffffffffffffffffff163373ffffffffffffffffffffffffffffffffffffffff1614806118b057508173ffffffffffffffffffffffffffffffffffffffff163373ffffffffffffffffffffffffffffffffffffffff16145b6118ef576040517f08c379a00000000000000000000000000000000000000000000000000000000081526004016118e690613432565b60405180910390fd5b6001600084815260200190815260200160002060009054906101000a900460ff1661194f576040517f08c379a000000000000000000000000000000000000000000000000000000000815260040161194690613013565b60405180910390fd5b6000815111801561196357506101f4815111155b6119a2576040517f08c379a00000000000000000000000000000000000000000000000000000000081526004016119999061349e565b60405180910390fd5b6000806000858152602001908152602001600020905060018160080160146101000a81548160ff021916908315150217905550836004826001016040516119e99190613122565b90815260200160405180910390205403611a27576000801b600482600101604051611a149190613122565b9081526020016040518091039020819055505b8273ffffffffffffffffffffffffffffffffffffffff16847f32c0cb2908be8d4281ab9321986750e21f14d5f3b27cbf3794594cf45f6ea900844243604051611a72939291906134be565b60405180910390a350505050565b600560009054906101000a900473ffffffffffffffffffffffffffffffffffffffff1681565b604051806101800160405280600080191681526020016060815260200160008152602001606081526020016060815260200160608152602001600061ffff16815260200160608152602001600073ffffffffffffffffffffffffffffffffffffffff16815260200160001515815260200160608152602001600081525090565b6000604051905090565b600080fd5b600080fd5b600080fd5b600080fd5b6000601f19601f8301169050919050565b7f4e487b7100000000000000000000000000000000000000000000000000000000600052604160045260246000fd5b611b8d82611b44565b810181811067ffffffffffffffff82111715611bac57611bab611b55565b5b80604052505050565b6000611bbf611b26565b9050611bcb8282611b84565b919050565b600067ffffffffffffffff821115611beb57611bea611b55565b5b611bf482611b44565b9050602081019050919050565b82818337600083830152505050565b6000611c23611c1e84611bd0565b611bb5565b905082815260208101848484011115611c3f57611c3e611b3f565b5b611c4a848285611c01565b509392505050565b600082601f830112611c6757611c66611b3a565b5b8135611c77848260208601611c10565b91505092915050565b600060208284031215611c9657611c95611b30565b5b600082013567ffffffffffffffff811115611cb457611cb3611b35565b5b611cc084828501611c52565b91505092915050565b6000819050919050565b611cdc81611cc9565b82525050565b6000602082019050611cf76000830184611cd3565b92915050565b611d0681611cc9565b8114611d1157600080fd5b50565b600081359050611d2381611cfd565b92915050565b600061ffff82169050919050565b611d4081611d29565b8114611d4b57600080fd5b50565b600081359050611d5d81611d37565b92915050565b600067ffffffffffffffff821115611d7e57611d7d611b55565b5b611d8782611b44565b9050602081019050919050565b6000611da7611da284611d63565b611bb5565b905082815260208101848484011115611dc357611dc2611b3f565b5b611dce848285611c01565b509392505050565b600082601f830112611deb57611dea611b3a565b5b8135611dfb848260208601611d94565b91505092915050565b600073ffffffffffffffffffffffffffffffffffffffff82169050919050565b6000611e2f82611e04565b9050919050565b611e3f81611e24565b8114611e4a57600080fd5b50565b600081359050611e5c81611e36565b92915050565b60008060008060008060008060006101208a8c031215611e8557611e84611b30565b5b6000611e938c828d01611d14565b99505060208a013567ffffffffffffffff811115611eb457611eb3611b35565b5b611ec08c828d01611c52565b98505060408a013567ffffffffffffffff811115611ee157611ee0611b35565b5b611eed8c828d01611c52565b97505060608a013567ffffffffffffffff811115611f0e57611f0d611b35565b5b611f1a8c828d01611c52565b96505060808a013567ffffffffffffffff811115611f3b57611f3a611b35565b5b611f478c828d01611c52565b95505060a0611f588c828d01611d4e565b94505060c08a013567ffffffffffffffff811115611f7957611f78611b35565b5b611f858c828d01611c52565b93505060e08a013567ffffffffffffffff811115611fa657611fa5611b35565b5b611fb28c828d01611dd6565b925050610100611fc48c828d01611e4d565b9150509295985092959850929598565b6000819050919050565b611fe781611fd4565b82525050565b60006020820190506120026000830184611fde565b92915050565b6000819050919050565b600061202d61202861202384611e04565b612008565b611e04565b9050919050565b600061203f82612012565b9050919050565b600061205182612034565b9050919050565b61206181612046565b82525050565b600060208201905061207c6000830184612058565b92915050565b6000806040838503121561209957612098611b30565b5b60006120a785828601611d14565b92505060206120b885828601611e4d565b9150509250929050565b6000602082840312156120d8576120d7611b30565b5b60006120e684828501611d14565b91505092915050565b600081519050919050565b600082825260208201905092915050565b60005b8381101561212957808201518184015260208101905061210e565b60008484015250505050565b6000612140826120ef565b61214a81856120fa565b935061215a81856020860161210b565b61216381611b44565b840191505092915050565b61217781611d29565b82525050565b61218681611e24565b82525050565b60008115159050919050565b6121a18161218c565b82525050565b600081519050919050565b600082825260208201905092915050565b60006121ce826121a7565b6121d881856121b2565b93506121e881856020860161210b565b6121f181611b44565b840191505092915050565b6000610160820190508181036000830152612217818e612135565b9050612226602083018d611fde565b8181036040830152612238818c612135565b9050818103606083015261224c818b612135565b90508181036080830152612260818a612135565b905061226f60a083018961216e565b81810360c08301526122818188612135565b905061229060e083018761217d565b61229e610100830186612198565b8181036101208301526122b181856121c3565b90506122c1610140830184611fde565b9c9b505050505050505050505050565b6122da81611fd4565b81146122e557600080fd5b50565b6000813590506122f7816122d1565b92915050565b6000806040838503121561231457612313611b30565b5b600083013567ffffffffffffffff81111561233257612331611b35565b5b61233e85828601611c52565b925050602061234f858286016122e8565b9150509250929050565b600081519050919050565b600082825260208201905092915050565b6000819050602082019050919050565b61238e81611cc9565b82525050565b60006123a08383612385565b60208301905092915050565b6000602082019050919050565b60006123c482612359565b6123ce8185612364565b93506123d983612375565b8060005b8381101561240a5781516123f18882612394565b97506123fc836123ac565b9250506001810190506123dd565b5085935050505092915050565b6000602082019050818103600083015261243181846123b9565b905092915050565b600082825260208201905092915050565b6000612455826120ef565b61245f8185612439565b935061246f81856020860161210b565b61247881611b44565b840191505092915050565b61248c81611fd4565b82525050565b61249b81611d29565b82525050565b6124aa81611e24565b82525050565b6124b98161218c565b82525050565b600082825260208201905092915050565b60006124db826121a7565b6124e581856124bf565b93506124f581856020860161210b565b6124fe81611b44565b840191505092915050565b6000610180830160008301516125226000860182612385565b506020830151848203602086015261253a828261244a565b915050604083015161254f6040860182612483565b5060608301518482036060860152612567828261244a565b91505060808301518482036080860152612581828261244a565b91505060a083015184820360a086015261259b828261244a565b91505060c08301516125b060c0860182612492565b5060e083015184820360e08601526125c8828261244a565b9150506101008301516125df6101008601826124a1565b506101208301516125f46101208601826124b0565b5061014083015184820361014086015261260e82826124d0565b915050610160830151612625610160860182612483565b508091505092915050565b6000602082019050818103600083015261264a8184612509565b905092915050565b60008060006060848603121561266b5761266a611b30565b5b600061267986828701611d14565b935050602061268a86828701611e4d565b925050604084013567ffffffffffffffff8111156126ab576126aa611b35565b5b6126b786828701611c52565b9150509250925092565b60006020820190506126d6600083018461217d565b92915050565b6126e58161218c565b81146126f057600080fd5b50565b600081519050612702816126dc565b92915050565b60006020828403121561271e5761271d611b30565b5b600061272c848285016126f3565b91505092915050565b7f50726f766964656420697373756572206973206e6f7420617574686f72697a6560008201527f6400000000000000000000000000000000000000000000000000000000000000602082015250565b60006127916021836120fa565b915061279c82612735565b604082019050919050565b600060208201905081810360008301526127c081612784565b9050919050565b7f4f6e6c792061646d696e206f7220746865206973737565722063616e2069737360008201527f7565206365727469666963617465730000000000000000000000000000000000602082015250565b6000612823602f836120fa565b915061282e826127c7565b604082019050919050565b6000602082019050818103600083015261285281612816565b9050919050565b7f436572746966696361746520616c726561647920657869737473000000000000600082015250565b600061288f601a836120fa565b915061289a82612859565b602082019050919050565b600060208201905081810360008301526128be81612882565b9050919050565b7f496e76616c696420434750410000000000000000000000000000000000000000600082015250565b60006128fb600c836120fa565b9150612906826128c5565b602082019050919050565b6000602082019050818103600083015261292a816128ee565b9050919050565b600081905092915050565b6000612947826120ef565b6129518185612931565b935061296181856020860161210b565b80840191505092915050565b6000612979828461293c565b915081905092915050565b7f53747564656e742068617320616e20616374697665206365727469666963617460008201527f652e205265766f6b65206974206265666f7265206372656174696e672061206e60208201527f65772076657273696f6e2e000000000000000000000000000000000000000000604082015250565b6000612a06604b836120fa565b9150612a1182612984565b606082019050919050565b60006020820190508181036000830152612a35816129f9565b9050919050565b7f4e487b7100000000000000000000000000000000000000000000000000000000600052601160045260246000fd5b6000612a7682611fd4565b9150612a8183611fd4565b9250828201905080821115612a9957612a98612a3c565b5b92915050565b7f4e487b7100000000000000000000000000000000000000000000000000000000600052602260045260246000fd5b60006002820490506001821680612ae657607f821691505b602082108103612af957612af8612a9f565b5b50919050565b60008190508160005260206000209050919050565b60006020601f8301049050919050565b600082821b905092915050565b600060088302612b617fffffffffffffffffffffffffffffffffffffffffffffffffffffffffffffffff82612b24565b612b6b8683612b24565b95508019841693508086168417925050509392505050565b6000612b9e612b99612b9484611fd4565b612008565b611fd4565b9050919050565b6000819050919050565b612bb883612b83565b612bcc612bc482612ba5565b848454612b31565b825550505050565b600090565b612be1612bd4565b612bec818484612baf565b505050565b5b81811015612c1057612c05600082612bd9565b600181019050612bf2565b5050565b601f821115612c5557612c2681612aff565b612c2f84612b14565b81016020851015612c3e578190505b612c52612c4a85612b14565b830182612bf1565b50505b505050565b600082821c905092915050565b6000612c7860001984600802612c5a565b1980831691505092915050565b6000612c918383612c67565b9150826002028217905092915050565b612caa826120ef565b67ffffffffffffffff811115612cc357612cc2611b55565b5b612ccd8254612ace565b612cd8828285612c14565b600060209050601f831160018114612d0b5760008415612cf9578287015190505b612d038582612c85565b865550612d6b565b601f198416612d1986612aff565b60005b82811015612d4157848901518255600182019150602085019450602081019050612d1c565b86831015612d5e5784890151612d5a601f891682612c67565b8355505b6001600288020188555050505b505050505050565b60008190508160005260206000209050919050565b601f821115612dc957612d9a81612d73565b612da384612b14565b81016020851015612db2578190505b612dc6612dbe85612b14565b830182612bf1565b50505b505050565b612dd7826121a7565b67ffffffffffffffff811115612df057612def611b55565b5b612dfa8254612ace565b612e05828285612d88565b600060209050601f831160018114612e385760008415612e26578287015190505b612e308582612c85565b865550612e98565b601f198416612e4686612d73565b60005b82811015612e6e57848901518255600182019150602085019450602081019050612e49565b86831015612e8b5784890151612e87601f891682612c67565b8355505b6001600288020188555050505b505050505050565b6000604082019050612eb56000830185611fde565b612ec26020830184611fde565b9392505050565b7f50726f7669646564206163746f72206973206e6f7420617574686f72697a6564600082015250565b6000612eff6020836120fa565b9150612f0a82612ec9565b602082019050919050565b60006020820190508181036000830152612f2e81612ef2565b9050919050565b7f4f6e6c792061646d696e206f7220746865206163746f722063616e207265616360008201527f7469766174652063657274696669636174657300000000000000000000000000602082015250565b6000612f916033836120fa565b9150612f9c82612f35565b604082019050919050565b60006020820190508181036000830152612fc081612f84565b9050919050565b7f436572746966696361746520646f6573206e6f74206578697374000000000000600082015250565b6000612ffd601a836120fa565b915061300882612fc7565b602082019050919050565b6000602082019050818103600083015261302c81612ff0565b9050919050565b7f436572746966696361746520697320616c726561647920616374697665000000600082015250565b6000613069601d836120fa565b915061307482613033565b602082019050919050565b600060208201905081810360008301526130988161305c565b9050919050565b600081546130ac81612ace565b6130b68186612931565b945060018216600081146130d157600181146130e657613119565b60ff1983168652811515820286019350613119565b6130ef85612aff565b60005b83811015613111578154818901526001820191506020810190506130f2565b838801955050505b50505092915050565b600061312e828461309f565b915081905092915050565b7f416e6f746865722076657273696f6e206973206163746976652e205265766f6b60008201527f6520697420666972737420746f2072656163746976617465207468697320766560208201527f7273696f6e2e0000000000000000000000000000000000000000000000000000604082015250565b60006131bb6046836120fa565b91506131c682613139565b606082019050919050565b600060208201905081810360008301526131ea816131ae565b9050919050565b7f4e6f2063657274696669636174657320666f756e6420666f722074686973207360008201527f747564656e740000000000000000000000000000000000000000000000000000602082015250565b600061324d6026836120fa565b9150613258826131f1565b604082019050919050565b6000602082019050818103600083015261327c81613240565b9050919050565b600061328e82611fd4565b915061329983611fd4565b92508282039050818111156132b1576132b0612a3c565b5b92915050565b7f4e487b7100000000000000000000000000000000000000000000000000000000600052603260045260246000fd5b60006132f182611fd4565b91507fffffffffffffffffffffffffffffffffffffffffffffffffffffffffffffffff820361332357613322612a3c565b5b600182019050919050565b7f4e6f2061637469766520636572746966696361746520666f722074686973207360008201527f747564656e740000000000000000000000000000000000000000000000000000602082015250565b600061338a6026836120fa565b91506133958261332e565b604082019050919050565b600060208201905081810360008301526133b98161337d565b9050919050565b7f4f6e6c792061646d696e206f7220746865206163746f722063616e207265766f60008201527f6b65206365727469666963617465730000000000000000000000000000000000602082015250565b600061341c602f836120fa565b9150613427826133c0565b604082019050919050565b6000602082019050818103600083015261344b8161340f565b9050919050565b7f526561736f6e206d75737420626520312d353030206368617261637465727300600082015250565b6000613488601f836120fa565b915061349382613452565b602082019050919050565b600060208201905081810360008301526134b78161347b565b9050919050565b600060608201905081810360008301526134d88186612135565b90506134e76020830185611fde565b6134f46040830184611fde565b94935050505056fea264697066735822122038908ffd7ff88a110cf723d16aa4ed9eb440ca510f0b3227cf25272bb3fcb7ae64736f6c63430008130033",
  "linkReferences": {},
  "deployedLinkReferences": {}
}