{
  "_format": "hh-sol-artifact-1",
  "contractName": "CertificateRegistry",
  "sourceName": "contracts/CertificateRegistry.sol",
  "abi": [
    {
      "inputs": [
        {
          "internalType": "address",
          "name": "_userRegistryAddress",
          "type": "address"
        }
      ],
      "stateMutability": "nonpayable",
      "type": "constructor"
    },
    {
      "anonymous": false,
      "inputs": [
        {
          "indexed": true,
          "internalType": "bytes32",
          "name": "cert_hash",
          "type": "bytes32"
        },
        {
          "indexed": true,
          "internalType": "string",
          "name": "student_id",
          "type": "string"
        },
        {
          "indexed": false,
          "internalType": "uint256",
          "name": "version",
          "type": "uint256"
        },
        {
          "indexed": true,
          "internalType": "address",
          "name": "issuer",
          "type": "address"
        },
        {
          "indexed": false,
          "internalType": "uint256",
          "name": "block_number",
          "type": "uint256"
        }
      ],
      "name": "CertificateIssued",
      "type": "event"
    },
    {
      "anonymous": false,
      "inputs": [
        {
          "indexed": true,
          "internalType": "bytes32",
          "name": "cert_hash",
          "type": "bytes32"
        },
        {
          "indexed": true,
          "internalType": "address",
          "name": "reactivated_by",
          "type": "address"
        },
        {
          "indexed": false,
          "internalType": "uint256",
          "name": "block_number",
          "type": "uint256"
        }
      ],
      "name": "CertificateReactivated",
      "type": "event"
    },
    {
      "anonymous": false,
      "inputs": [
        {
          "indexed": true,
          "internalType": "bytes32",
          "name": "cert_hash",
          "type": "bytes32"
        },
        {
          "indexed": true,
          "internalType": "address",
          "name": "revoked_by",
          "type": "address"
        },
        {
          "indexed": false,
          "internalType": "uint256",
          "name": "block_number",
          "type": "uint256"
        }
      ],
      "name": "CertificateRevoked",
      "type": "event"
    },
    {
      "inputs": [],
      "name": "admin",
      "outputs": [
        {
          "internalType": "address",
          "name": "",
          "type": "address"
        }
      ],
      "stateMutability": "view",
      "type": "function"
    },
    {
      "inputs": [
        {
          "internalType": "string",
          "name": "student_id",
          "type": "string"
        }
      ],
      "name": "getActiveCertificate",
      "outputs": [
        {
          "components": [
            {
              "internalType": "bytes32",
              "name": "cert_hash",
              "type": "bytes32"
            },
            {
              "internalType": "string",
              "name": "student_id",
              "type": "string"
            },
            {
              "internalType": "uint256",
              "name": "version",
              "type": "uint256"
            },
            {
              "internalType": "string",
              "name": "student_name",
              "type": "string"
            },
            {
              "internalType": "string",
              "name": "degree",
              "type": "string"
            },
            {
              "internalType": "string",
              "name": "program",
              "type": "string"
            },
            {
              "internalType": "uint16",
              "name": "cgpa",
              "type": "uint16"
            },
            {
              "internalType": "string",
              "name": "issuing_authority",
              "type": "string"
            },
            {
              "internalType": "address",
              "name": "issuer",
              "type": "address"
            },
            {
              "internalType": "bool",
              "name": "is_revoked",
              "type": "bool"
            },
            {
              "internalType": "bytes",
              "name": "signature",
              "type": "bytes"
            },
            {
              "internalType": "uint256",
              "name": "issuance_date",
              "type": "uint256"
            }
          ],
          "internalType": "struct CertificateRegistry.Certificate",
          "name": "",
          "type": "tuple"
        }
      ],
      "stateMutability": "view",
      "type": "function"
    },
    {
      "inputs": [
        {
          "internalType": "string",
          "name": "student_id",
          "type": "string"
        }
      ],
      "name": "getAllVersions",
      "outputs": [
        {
          "internalType": "bytes32[]",
          "name": "",
          "type": "bytes32[]"
        }
      ],
      "stateMutability": "view",
      "type": "function"
    },
    {
      "inputs": [
        {
          "internalType": "bytes32",
          "name": "cert_hash",
          "type": "bytes32"
        },
        {
          "internalType": "string",
          "name": "student_id",
          "type": "string"
        },
        {
          "internalType": "string",
          "name": "student_name",
          "type": "string"
        },
        {
          "internalType": "string",
          "name": "degree",
          "type": "string"
        },
        {
          "internalType": "string",
          "name": "program",
          "type": "string"
        },
        {
          "internalType": "uint16",
          "name": "cgpa",
          "type": "uint16"
        },
        {
          "internalType": "string",
          "name": "issuing_authority",
          "type": "string"
        },
        {
          "internalType": "bytes",
          "name": "signature",
          "type": "bytes"
        },
        {
          "internalType": "address",
          "name": "issuer_address",
          "type": "address"
        }
      ],
      "name": "issueCertificate",
      "outputs": [],
      "stateMutability": "nonpayable",
      "type": "function"
    },
    {
      "inputs": [
        {
          "internalType": "bytes32",
          "name": "cert_hash",
          "type": "bytes32"
        },
        {
          "internalType": "address",
          "name": "actor_address",
          "type": "address"
        }
      ],
      "name": "reactivateCertificate",
      "outputs": [],
      "stateMutability": "nonpayable",
      "type": "function"
    },
    {
      "inputs": [
        {
          "internalType": "bytes32",
          "name": "cert_hash",
          "type": "bytes32"
        },
        {
          "internalType": "address",
          "name": "actor_address",
          "type": "address"
        }
      ],
      "name": "revokeCertificate",
      "outputs": [],
      "stateMutability": "nonpayable",
      "type": "function"
    },
    {
      "inputs": [
        {
          "internalType": "string",
          "name": "",
          "type": "string"
        }
      ],
      "name": "student_to_active_cert_hash",
      "outputs": [
        {
          "internalType": "bytes32",
          "name": "",
          "type": "bytes32"
        }
      ],
      "stateMutability": "view",
      "type": "function"
    },
    {
      "inputs": [
        {
          "internalType": "string",
          "name": "",
          "type": "string"
        }
      ],
      "name": "student_to_latest_version",
      "outputs": [
        {
          "internalType": "uint256",
          "name": "",
          "type": "uint256"
        }
      ],
      "stateMutability": "view",
      "type": "function"
    },
    {
      "inputs": [
        {
          "internalType": "string",
          "name": "",
          "type": "string"
        },
        {
          "internalType": "uint256",
          "name": "",
          "type": "uint256"
        }
      ],
      "name": "student_version_to_hash",
      "outputs": [
        {
          "internalType": "bytes32",
          "name": "",
          "type": "bytes32"
        }
      ],
      "stateMutability": "view",
      "type": "function"
    },
    {
      "inputs": [],
      "name": "userRegistry",
      "outputs": [
        {
          "internalType": "contract IUserRegistry",
          "name": "",
          "type": "address"
        }
      ],
      "stateMutability": "view",
      "type": "function"
    },
    {
      "inputs": [
        {
          "internalType": "bytes32",
          "name": "cert_hash",
          "type": "bytes32"
        }
      ],
      "name": "verifyCertificate",
      "outputs": [
        {
          "internalType": "string",
          "name": "student_id",
          "type": "string"
        },
        {
          "internalType": "uint256",
          "name": "version",
          "type": "uint256"
        },
        {
          "internalType": "string",
          "name": "student_name",
          "type": "string"
        },
        {
          "internalType": "string",
          "name": "degree",
          "type": "string"
        },
        {
          "internalType": "string",
          "name": "program",
          "type": "string"
        },
        {
          "internalType": "uint16",
          "name": "cgpa",
          "type": "uint16"
        },
        {
          "internalType": "string",
          "name": "issuing_authority",
          "type": "string"
        },
        {
          "internalType": "address",
          "name": "issuer",
          "type": "address"
        },
        {
          "internalType": "bool",
          "name": "is_revoked",
          "type": "bool"
        },
        {
          "internalType": "bytes",
          "name": "signature",
          "type": "bytes"
        },
        {
          "internalType": "uint256",
          "name": "issuance_date",
          "type": "uint256"
        }
      ],
      "stateMutability": "view",
      "type": "function"
    }
  ],
  "bytecode": "0x60806040523480156200001157600080fd5b506040516200352d3803806200352d83398181016040528101906200003791906200012a565b33600560006101000a81548173ffffffffffffffffffffffffffffffffffffffff021916908373ffffffffffffffffffffffffffffffffffffffff16021790555080600660006101000a81548173ffffffffffffffffffffffffffffffffffffffff021916908373ffffffffffffffffffffffffffffffffffffffff160217905550506200015c565b600080fd5b600073ffffffffffffffffffffffffffffffffffffffff82169050919050565b6000620000f282620000c5565b9050919050565b6200010481620000e5565b81146200011057600080fd5b50565b6000815190506200012481620000f9565b92915050565b600060208284031215620001435762000142620000c0565b5b6000620001538482850162000113565b91505092915050565b6133c1806200016c6000396000f3fe608060405234801561001057600080fd5b50600436106100a95760003560e01c806377d8b3601161007157806377d8b36014610164578063850c176814610180578063bae5de01146101ba578063d4dca96d146101ea578063dd488cc31461021a578063f851a4401461024a576100a9565b8063020a69dd146100ae57806310d355f2146100de5780634956be29146100fa57806358056c5b146101165780635c7460d614610146575b600080fd5b6100c860048036038101906100c39190611c28565b610268565b6040516100d59190611c8a565b60405180910390f35b6100f860048036038101906100f39190611d2f565b610296565b005b610114600480360381019061010f9190611e4a565b610570565b005b610130600480360381019061012b9190611c28565b610b2f565b60405161013d9190611fd5565b60405180910390f35b61014e610b5d565b60405161015b919061204f565b60405180910390f35b61017e60048036038101906101799190611d2f565b610b83565b005b61019a6004803603810190610195919061206a565b610eee565b6040516101b19b9a999897969594939291906121a4565b60405180910390f35b6101d460048036038101906101cf91906122a5565b611400565b6040516101e19190611c8a565b60405180910390f35b61020460048036038101906101ff9190611c28565b61143b565b60405161021191906123bf565b60405180910390f35b610234600480360381019061022f9190611c28565b611577565b60405161024191906125d8565b60405180910390f35b610252611a28565b60405161025f91906125fa565b60405180910390f35b6004818051602081018201805184825260208301602085012081835280955050505050506000915090505481565b600660009054906101000a900473ffffffffffffffffffffffffffffffffffffffff1673ffffffffffffffffffffffffffffffffffffffff1663fe9fbb80826040518263ffffffff1660e01b81526004016102f191906125fa565b602060405180830381865afa15801561030e573d6000803e3d6000fd5b505050506040513d601f19601f820116820180604052508101906103329190612641565b610371576040517f08c379a0000000000000000000000000000000000000000000000000000000008152600401610368906126ba565b60405180910390fd5b600560009054906101000a900473ffffffffffffffffffffffffffffffffffffffff1673ffffffffffffffffffffffffffffffffffffffff163373ffffffffffffffffffffffffffffffffffffffff1614806103f857508073ffffffffffffffffffffffffffffffffffffffff163373ffffffffffffffffffffffffffffffffffffffff16145b610437576040517f08c379a000000000000000000000000000000000000000000000000000000000815260040161042e9061274c565b60405180910390fd5b6001600083815260200190815260200160002060009054906101000a900460ff16610497576040517f08c379a000000000000000000000000000000000000000000000000000000000815260040161048e906127b8565b60405180910390fd5b6000806000848152602001908152602001600020905060018160080160146101000a81548160ff021916908315150217905550826004826001016040516104de91906128db565b9081526020016040518091039020540361051c576000801b60048260010160405161050991906128db565b9081526020016040518091039020819055505b8173ffffffffffffffffffffffffffffffffffffffff16837f85fe6dd2dfc4757558754564c7ff020182ec3c918257c2ff3a217a63791ec24f436040516105639190611fd5565b60405180910390a3505050565b600660009054906101000a900473ffffffffffffffffffffffffffffffffffffffff1673ffffffffffffffffffffffffffffffffffffffff1663fe9fbb80826040518263ffffffff1660e01b81526004016105cb91906125fa565b602060405180830381865afa1580156105e8573d6000803e3d6000fd5b505050506040513d601f19601f8201168201806040525081019061060c9190612641565b61064b576040517f08c379a000000000000000000000000000000000000000000000000000000000815260040161064290612964565b60405180910390fd5b600560009054906101000a900473ffffffffffffffffffffffffffffffffffffffff1673ffffffffffffffffffffffffffffffffffffffff163373ffffffffffffffffffffffffffffffffffffffff1614806106d257508073ffffffffffffffffffffffffffffffffffffffff163373ffffffffffffffffffffffffffffffffffffffff16145b610711576040517f08c379a0000000000000000000000000000000000000000000000000000000008152600401610708906129f6565b60405180910390fd5b600160008a815260200190815260200160002060009054906101000a900460ff1615610772576040517f08c379a000000000000000000000000000000000000000000000000000000000815260040161076990612a62565b60405180910390fd5b6101908461ffff1611156107bb576040517f08c379a00000000000000000000000000000000000000000000000000000000081526004016107b290612ace565b60405180910390fd5b60006002896040516107cd9190612b1f565b9081526020016040518091039020549050600081111561085157600060048a6040516107f99190612b1f565b90815260200160405180910390205490506000801b811461084f576040517f08c379a000000000000000000000000000000000000000000000000000000000815260040161084690612bce565b60405180910390fd5b505b60006001826108609190612c1d565b90506040518061018001604052808c81526020018b81526020018281526020018a81526020018981526020018881526020018761ffff1681526020018681526020018473ffffffffffffffffffffffffffffffffffffffff168152602001600015158152602001858152602001428152506000808d81526020019081526020016000206000820151816000015560208201518160010190816109029190612dde565b506040820151816002015560608201518160030190816109229190612dde565b5060808201518160040190816109389190612dde565b5060a082015181600501908161094e9190612dde565b5060c08201518160060160006101000a81548161ffff021916908361ffff16021790555060e08201518160070190816109879190612dde565b506101008201518160080160006101000a81548173ffffffffffffffffffffffffffffffffffffffff021916908373ffffffffffffffffffffffffffffffffffffffff1602179055506101208201518160080160146101000a81548160ff021916908315150217905550610140820151816009019081610a079190612f0b565b5061016082015181600a015590505060018060008d815260200190815260200160002060006101000a81548160ff0219169083151502179055508060028b604051610a529190612b1f565b9081526020016040518091039020819055508a60038b604051610a759190612b1f565b90815260200160405180910390206000838152602001908152602001600020819055508a60048b604051610aa99190612b1f565b9081526020016040518091039020819055508273ffffffffffffffffffffffffffffffffffffffff168a604051610ae09190612b1f565b60405180910390208c7f1a674fcfd84f83bf208cf13da6ae7b6b9562596f54c89e2217c1a770f8107b018443604051610b1a929190612fdd565b60405180910390a45050505050505050505050565b6002818051602081018201805184825260208301602085012081835280955050505050506000915090505481565b600660009054906101000a900473ffffffffffffffffffffffffffffffffffffffff1681565b600660009054906101000a900473ffffffffffffffffffffffffffffffffffffffff1673ffffffffffffffffffffffffffffffffffffffff1663fe9fbb80826040518263ffffffff1660e01b8152600401610bde91906125fa565b602060405180830381865afa158015610bfb573d6000803e3d6000fd5b505050506040513d601f19601f82011682018060405250810190610c1f9190612641565b610c5e576040517f08c379a0000000000000000000000000000000000000000000000000000000008152600401610c55906126ba565b60405180910390fd5b600560009054906101000a900473ffffffffffffffffffffffffffffffffffffffff1673ffffffffffffffffffffffffffffffffffffffff163373ffffffffffffffffffffffffffffffffffffffff161480610ce557508073ffffffffffffffffffffffffffffffffffffffff163373ffffffffffffffffffffffffffffffffffffffff16145b610d24576040517f08c379a0000000000000000000000000000000000000000000000000000000008152600401610d1b90613078565b60405180910390fd5b6001600083815260200190815260200160002060009054906101000a900460ff16610d84576040517f08c379a0000000000000000000000000000000000000000000000000000000008152600401610d7b906127b8565b60405180910390fd5b600080600084815260200190815260200160002090508060080160149054906101000a900460ff16610deb576040517f08c379a0000000000000000000000000000000000000000000000000000000008152600401610de2906130e4565b60405180910390fd5b6000600482600101604051610e0091906128db565b90815260200160405180910390205490506000801b8114610e56576040517f08c379a0000000000000000000000000000000000000000000000000000000008152600401610e4d9061319c565b60405180910390fd5b60008260080160146101000a81548160ff02191690831515021790555083600483600101604051610e8791906128db565b9081526020016040518091039020819055508273ffffffffffffffffffffffffffffffffffffffff16847f8715fb30c14da3439544babc7c09ae9bd692d480791dfb8424a3177e9fc1487843604051610ee09190611fd5565b60405180910390a350505050565b6060600060608060606000606060008060606000600160008d815260200190815260200160002060009054906101000a900460ff16610f62576040517f08c379a0000000000000000000000000000000000000000000000000000000008152600401610f59906127b8565b60405180910390fd5b60008060008e81526020019081526020016000206040518061018001604052908160008201548152602001600182018054610f9c90612807565b80601f0160208091040260200160405190810160405280929190818152602001828054610fc890612807565b80156110155780601f10610fea57610100808354040283529160200191611015565b820191906000526020600020905b815481529060010190602001808311610ff857829003601f168201915b505050505081526020016002820154815260200160038201805461103890612807565b80601f016020809104026020016040519081016040528092919081815260200182805461106490612807565b80156110b15780601f10611086576101008083540402835291602001916110b1565b820191906000526020600020905b81548152906001019060200180831161109457829003601f168201915b505050505081526020016004820180546110ca90612807565b80601f01602080910402602001604051908101604052809291908181526020018280546110f690612807565b80156111435780601f1061111857610100808354040283529160200191611143565b820191906000526020600020905b81548152906001019060200180831161112657829003601f168201915b5050505050815260200160058201805461115c90612807565b80601f016020809104026020016040519081016040528092919081815260200182805461118890612807565b80156111d55780601f106111aa576101008083540402835291602001916111d5565b820191906000526020600020905b8154815290600101906020018083116111b857829003601f168201915b505050505081526020016006820160009054906101000a900461ffff1661ffff1661ffff16815260200160078201805461120e90612807565b80601f016020809104026020016040519081016040528092919081815260200182805461123a90612807565b80156112875780601f1061125c57610100808354040283529160200191611287565b820191906000526020600020905b81548152906001019060200180831161126a57829003601f168201915b505050505081526020016008820160009054906101000a900473ffffffffffffffffffffffffffffffffffffffff1673ffffffffffffffffffffffffffffffffffffffff1673ffffffffffffffffffffffffffffffffffffffff1681526020016008820160149054906101000a900460ff1615151515815260200160098201805461131190612807565b80601f016020809104026020016040519081016040528092919081815260200182805461133d90612807565b801561138a5780601f1061135f5761010080835404028352916020019161138a565b820191906000526020600020905b81548152906001019060200180831161136d57829003601f168201915b50505050508152602001600a82015481525050905080602001518160400151826060015183608001518460a001518560c001518660e001518761010001518861012001518961014001518a61016001519b509b509b509b509b509b509b509b509b509b509b505091939597999b90929496989a50565b600382805160208101820180518482526020830160208501208183528095505050505050602052806000526040600020600091509150505481565b6060600060028360405161144f9190612b1f565b9081526020016040518091039020549050600081116114a3576040517f08c379a000000000000000000000000000000000000000000000000000000000815260040161149a9061322e565b60405180910390fd5b60008167ffffffffffffffff8111156114bf576114be611afd565b5b6040519080825280602002602001820160405280156114ed5781602001602082028036833780820191505090505b5090506000600190505b82811161156c5760038560405161150e9190612b1f565b90815260200160405180910390206000828152602001908152602001600020548260018361153c919061324e565b8151811061154d5761154c613282565b5b6020026020010181815250508080611564906132b1565b9150506114f7565b508092505050919050565b61157f611a4e565b60006004836040516115919190612b1f565b90815260200160405180910390205490506000801b81036115e7576040517f08c379a00000000000000000000000000000000000000000000000000000000081526004016115de9061336b565b60405180910390fd5b600080828152602001908152602001600020604051806101800160405290816000820154815260200160018201805461161f90612807565b80601f016020809104026020016040519081016040528092919081815260200182805461164b90612807565b80156116985780601f1061166d57610100808354040283529160200191611698565b820191906000526020600020905b81548152906001019060200180831161167b57829003601f168201915b50505050508152602001600282015481526020016003820180546116bb90612807565b80601f01602080910402602001604051908101604052809291908181526020018280546116e790612807565b80156117345780601f1061170957610100808354040283529160200191611734565b820191906000526020600020905b81548152906001019060200180831161171757829003601f168201915b5050505050815260200160048201805461174d90612807565b80601f016020809104026020016040519081016040528092919081815260200182805461177990612807565b80156117c65780601f1061179b576101008083540402835291602001916117c6565b820191906000526020600020905b8154815290600101906020018083116117a957829003601f168201915b505050505081526020016005820180546117df90612807565b80601f016020809104026020016040519081016040528092919081815260200182805461180b90612807565b80156118585780601f1061182d57610100808354040283529160200191611858565b820191906000526020600020905b81548152906001019060200180831161183b57829003601f168201915b505050505081526020016006820160009054906101000a900461ffff1661ffff1661ffff16815260200160078201805461189190612807565b80601f01602080910402602001604051908101604052809291908181526020018280546118bd90612807565b801561190a5780601f106118df5761010080835404028352916020019161190a565b820191906000526020600020905b8154815290600101906020018083116118ed57829003601f168201915b505050505081526020016008820160009054906101000a900473ffffffffffffffffffffffffffffffffffffffff1673ffffffffffffffffffffffffffffffffffffffff1673ffffffffffffffffffffffffffffffffffffffff1681526020016008820160149054906101000a900460ff1615151515815260200160098201805461199490612807565b80601f01602080910402602001604051908101604052809291908181526020018280546119c090612807565b8015611a0d5780601f106119e257610100808354040283529160200191611a0d565b820191906000526020600020905b8154815290600101906020018083116119f057829003601f168201915b50505050508152602001600a82015481525050915050919050565b600560009054906101000a900473ffffffffffffffffffffffffffffffffffffffff1681565b604051806101800160405280600080191681526020016060815260200160008152602001606081526020016060815260200160608152602001600061ffff16815260200160608152602001600073ffffffffffffffffffffffffffffffffffffffff16815260200160001515815260200160608152602001600081525090565b6000604051905090565b600080fd5b600080fd5b600080fd5b600080fd5b6000601f19601f8301169050919050565b7f4e487b7100000000000000000000000000000000000000000000000000000000600052604160045260246000fd5b611b3582611aec565b810181811067ffffffffffffffff82111715611b5457611b53611afd565b5b80604052505050565b6000611b67611ace565b9050611b738282611b2c565b919050565b600067ffffffffffffffff821115611b9357611b92611afd565b5b611b9c82611aec565b9050602081019050919050565b82818337600083830152505050565b6000611bcb611bc684611b78565b611b5d565b905082815260208101848484011115611be757611be6611ae7565b5b611bf2848285611ba9565b509392505050565b600082601f830112611c0f57611c0e611ae2565b5b8135611c1f848260208601611bb8565b91505092915050565b600060208284031215611c3e57611c3d611ad8565b5b600082013567ffffffffffffffff811115611c5c57611c5b611add565b5b611c6884828501611bfa565b91505092915050565b6000819050919050565b611c8481611c71565b82525050565b6000602082019050611c9f6000830184611c7b565b92915050565b611cae81611c71565b8114611cb957600080fd5b50565b600081359050611ccb81611ca5565b92915050565b600073ffffffffffffffffffffffffffffffffffffffff82169050919050565b6000611cfc82611cd1565b9050919050565b611d0c81611cf1565b8114611d1757600080fd5b50565b600081359050611d2981611d03565b92915050565b60008060408385031215611d4657611d45611ad8565b5b6000611d5485828601611cbc565b9250506020611d6585828601611d1a565b9150509250929050565b600061ffff82169050919050565b611d8681611d6f565b8114611d9157600080fd5b50565b600081359050611da381611d7d565b92915050565b600067ffffffffffffffff821115611dc457611dc3611afd565b5b611dcd82611aec565b9050602081019050919050565b6000611ded611de884611da9565b611b5d565b905082815260208101848484011115611e0957611e08611ae7565b5b611e14848285611ba9565b509392505050565b600082601f830112611e3157611e30611ae2565b5b8135611e41848260208601611dda565b91505092915050565b60008060008060008060008060006101208a8c031215611e6d57611e6c611ad8565b5b6000611e7b8c828d01611cbc565b99505060208a013567ffffffffffffffff811115611e9c57611e9b611add565b5b611ea88c828d01611bfa565b98505060408a013567ffffffffffffffff811115611ec957611ec8611add565b5b611ed58c828d01611bfa565b97505060608a013567ffffffffffffffff811115611ef657611ef5611add565b5b611f028c828d01611bfa565b96505060808a013567ffffffffffffffff811115611f2357611f22611add565b5b611f2f8c828d01611bfa565b95505060a0611f408c828d01611d94565b94505060c08a013567ffffffffffffffff811115611f6157611f60611add565b5b611f6d8c828d01611bfa565b93505060e08a013567ffffffffffffffff811115611f8e57611f8d611add565b5b611f9a8c828d01611e1c565b925050610100611fac8c828d01611d1a565b9150509295985092959850929598565b6000819050919050565b611fcf81611fbc565b82525050565b6000602082019050611fea6000830184611fc6565b92915050565b6000819050919050565b600061201561201061200b84611cd1565b611ff0565b611cd1565b9050919050565b600061202782611ffa565b9050919050565b60006120398261201c565b9050919050565b6120498161202e565b82525050565b60006020820190506120646000830184612040565b92915050565b6000602082840312156120805761207f611ad8565b5b600061208e84828501611cbc565b91505092915050565b600081519050919050565b600082825260208201905092915050565b60005b838110156120d15780820151818401526020810190506120b6565b60008484015250505050565b60006120e882612097565b6120f281856120a2565b93506121028185602086016120b3565b61210b81611aec565b840191505092915050565b61211f81611d6f565b82525050565b61212e81611cf1565b82525050565b60008115159050919050565b61214981612134565b82525050565b600081519050919050565b600082825260208201905092915050565b60006121768261214f565b612180818561215a565b93506121908185602086016120b3565b61219981611aec565b840191505092915050565b60006101608201905081810360008301526121bf818e6120dd565b90506121ce602083018d611fc6565b81810360408301526121e0818c6120dd565b905081810360608301526121f4818b6120dd565b90508181036080830152612208818a6120dd565b905061221760a0830189612116565b81810360c083015261222981886120dd565b905061223860e0830187612125565b612246610100830186612140565b818103610120830152612259818561216b565b9050612269610140830184611fc6565b9c9b505050505050505050505050565b61228281611fbc565b811461228d57600080fd5b50565b60008135905061229f81612279565b92915050565b600080604083850312156122bc576122bb611ad8565b5b600083013567ffffffffffffffff8111156122da576122d9611add565b5b6122e685828601611bfa565b92505060206122f785828601612290565b9150509250929050565b600081519050919050565b600082825260208201905092915050565b6000819050602082019050919050565b61233681611c71565b82525050565b6000612348838361232d565b60208301905092915050565b6000602082019050919050565b600061236c82612301565b612376818561230c565b93506123818361231d565b8060005b838110156123b2578151612399888261233c565b97506123a483612354565b925050600181019050612385565b5085935050505092915050565b600060208201905081810360008301526123d98184612361565b905092915050565b600082825260208201905092915050565b60006123fd82612097565b61240781856123e1565b93506124178185602086016120b3565b61242081611aec565b840191505092915050565b61243481611fbc565b82525050565b61244381611d6f565b82525050565b61245281611cf1565b82525050565b61246181612134565b82525050565b600082825260208201905092915050565b60006124838261214f565b61248d8185612467565b935061249d8185602086016120b3565b6124a681611aec565b840191505092915050565b6000610180830160008301516124ca600086018261232d565b50602083015184820360208601526124e282826123f2565b91505060408301516124f7604086018261242b565b506060830151848203606086015261250f82826123f2565b9150506080830151848203608086015261252982826123f2565b91505060a083015184820360a086015261254382826123f2565b91505060c083015161255860c086018261243a565b5060e083015184820360e086015261257082826123f2565b915050610100830151612587610100860182612449565b5061012083015161259c610120860182612458565b506101408301518482036101408601526125b68282612478565b9150506101608301516125cd61016086018261242b565b508091505092915050565b600060208201905081810360008301526125f281846124b1565b905092915050565b600060208201905061260f6000830184612125565b92915050565b61261e81612134565b811461262957600080fd5b50565b60008151905061263b81612615565b92915050565b60006020828403121561265757612656611ad8565b5b60006126658482850161262c565b91505092915050565b7f50726f7669646564206163746f72206973206e6f7420617574686f72697a6564600082015250565b60006126a46020836120a2565b91506126af8261266e565b602082019050919050565b600060208201905081810360008301526126d381612697565b9050919050565b7f4f6e6c792061646d696e206f7220746865206163746f722063616e207265766f60008201527f6b65206365727469666963617465730000000000000000000000000000000000602082015250565b6000612736602f836120a2565b9150612741826126da565b604082019050919050565b6000602082019050818103600083015261276581612729565b9050919050565b7f436572746966696361746520646f6573206e6f74206578697374000000000000600082015250565b60006127a2601a836120a2565b91506127ad8261276c565b602082019050919050565b600060208201905081810360008301526127d181612795565b9050919050565b7f4e487b7100000000000000000000000000000000000000000000000000000000600052602260045260246000fd5b6000600282049050600182168061281f57607f821691505b602082108103612832576128316127d8565b5b50919050565b600081905092915050565b60008190508160005260206000209050919050565b6000815461286581612807565b61286f8186612838565b9450600182166000811461288a576001811461289f576128d2565b60ff19831686528115158202860193506128d2565b6128a885612843565b60005b838110156128ca578154818901526001820191506020810190506128ab565b838801955050505b50505092915050565b60006128e78284612858565b915081905092915050565b7f50726f766964656420697373756572206973206e6f7420617574686f72697a6560008201527f6400000000000000000000000000000000000000000000000000000000000000602082015250565b600061294e6021836120a2565b9150612959826128f2565b604082019050919050565b6000602082019050818103600083015261297d81612941565b9050919050565b7f4f6e6c792061646d696e206f7220746865206973737565722063616e2069737360008201527f7565206365727469666963617465730000000000000000000000000000000000602082015250565b60006129e0602f836120a2565b91506129eb82612984565b604082019050919050565b60006020820190508181036000830152612a0f816129d3565b9050919050565b7f436572746966696361746520616c726561647920657869737473000000000000600082015250565b6000612a4c601a836120a2565b9150612a5782612a16565b602082019050919050565b60006020820190508181036000830152612a7b81612a3f565b9050919050565b7f496e76616c696420434750410000000000000000000000000000000000000000600082015250565b6000612ab8600c836120a2565b9150612ac382612a82565b602082019050919050565b60006020820190508181036000830152612ae781612aab565b9050919050565b6000612af982612097565b612b038185612838565b9350612b138185602086016120b3565b80840191505092915050565b6000612b2b8284612aee565b915081905092915050565b7f53747564656e742068617320616e20616374697665206365727469666963617460008201527f652e205265766f6b65206974206265666f7265206372656174696e672061206e60208201527f65772076657273696f6e2e000000000000000000000000000000000000000000604082015250565b6000612bb8604b836120a2565b9150612bc382612b36565b606082019050919050565b60006020820190508181036000830152612be781612bab565b9050919050565b7f4e487b7100000000000000000000000000000000000000000000000000000000600052601160045260246000fd5b6000612c2882611fbc565b9150612c3383611fbc565b9250828201905080821115612c4b57612c4a612bee565b5b92915050565b60006020601f8301049050919050565b600082821b905092915050565b600060088302612c9e7fffffffffffffffffffffffffffffffffffffffffffffffffffffffffffffffff82612c61565b612ca88683612c61565b95508019841693508086168417925050509392505050565b6000612cdb612cd6612cd184611fbc565b611ff0565b611fbc565b9050919050565b6000819050919050565b612cf583612cc0565b612d09612d0182612ce2565b848454612c6e565b825550505050565b600090565b612d1e612d11565b612d29818484612cec565b505050565b5b81811015612d4d57612d42600082612d16565b600181019050612d2f565b5050565b601f821115612d9257612d6381612843565b612d6c84612c51565b81016020851015612d7b578190505b612d8f612d8785612c51565b830182612d2e565b50505b505050565b600082821c905092915050565b6000612db560001984600802612d97565b1980831691505092915050565b6000612dce8383612da4565b9150826002028217905092915050565b612de782612097565b67ffffffffffffffff811115612e0057612dff611afd565b5b612e0a8254612807565b612e15828285612d51565b600060209050601f831160018114612e485760008415612e36578287015190505b612e408582612dc2565b865550612ea8565b601f198416612e5686612843565b60005b82811015612e7e57848901518255600182019150602085019450602081019050612e59565b86831015612e9b5784890151612e97601f891682612da4565b8355505b6001600288020188555050505b505050505050565b60008190508160005260206000209050919050565b601f821115612f0657612ed781612eb0565b612ee084612c51565b81016020851015612eef578190505b612f03612efb85612c51565b830182612d2e565b50505b505050565b612f148261214f565b67ffffffffffffffff811115612f2d57612f2c611afd565b5b612f378254612807565b612f42828285612ec5565b600060209050601f831160018114612f755760008415612f63578287015190505b612f6d8582612dc2565b865550612fd5565b601f198416612f8386612eb0565b60005b82811015612fab57848901518255600182019150602085019450602081019050612f86565b86831015612fc85784890151612fc4601f891682612da4565b8355505b6001600288020188555050505b505050505050565b6000604082019050612ff26000830185611fc6565b612fff6020830184611fc6565b9392505050565b7f4f6e6c792061646d696e206f7220746865206163746f722063616e207265616360008201527f7469766174652063657274696669636174657300000000000000000000000000602082015250565b60006130626033836120a2565b915061306d82613006565b604082019050919050565b6000602082019050818103600083015261309181613055565b9050919050565b7f436572746966696361746520697320616c726561647920616374697665000000600082015250565b60006130ce601d836120a2565b91506130d982613098565b602082019050919050565b600060208201905081810360008301526130fd816130c1565b9050919050565b7f416e6f746865722076657273696f6e206973206163746976652e205265766f6b60008201527f6520697420666972737420746f2072656163746976617465207468697320766560208201527f7273696f6e2e0000000000000000000000000000000000000000000000000000604082015250565b60006131866046836120a2565b915061319182613104565b606082019050919050565b600060208201905081810360008301526131b581613179565b9050919050565b7f4e6f2063657274696669636174657320666f756e6420666f722074686973207360008201527f747564656e740000000000000000000000000000000000000000000000000000602082015250565b60006132186026836120a2565b9150613223826131bc565b604082019050919050565b600060208201905081810360008301526132478161320b565b9050919050565b600061325982611fbc565b915061326483611fbc565b925082820390508181111561327c5761327b612bee565b5b92915050565b7f4e487b7100000000000000000000000000000000000000000000000000000000600052603260045260246000fd5b60006132bc82611fbc565b91507fffffffffffffffffffffffffffffffffffffffffffffffffffffffffffffffff82036132ee576132ed612bee565b5b600182019050919050565b7f4e6f2061637469766520636572746966696361746520666f722074686973207360008201527f747564656e740000000000000000000000000000000000000000000000000000602082015250565b60006133556026836120a2565b9150613360826132f9565b604082019050919050565b6000602082019050818103600083015261338481613348565b905091905056fea2646970667358221220f3313773f5e7ec27824d2a899aa4d0a3893c81e723ef69cf6b5e8ffc32b7e05964736f6c63430008130033",
  "linkReferences": {},
  "deployedLinkReferences": {}
}